:020000040800F2
:1000000000900020E1340008313500083135000847
:1000100000000000000000000000000000000000E0
:100020000000000000000000000000003135000862
:1000300000000000000000003135000831350008E4
:1000400031350008313500083135000831350008F8
:10005000313500083135000831350008491D0008E8
:1000600031350008313500083135000831350008D8
:1000700031350008313500083135000831350008C8
:1000800031350008313500083135000831350008B8
:1000900031350008351B00083135000831350008BE
:1000A0003135000831350008313500083135000898
:0C00B000313500083135000831350008FA
:1000BC0010B5064C2378002B07D1054B002B02D032
:1000CC00044800E000BF0123237010BD4C05002044
:1000DC0000000000CC380008044B10B5002B03D0F6
:1000EC000349044800E000BF10BDC04600000000FA
:1000FC0050050020CC380008164B002B00D1144BB7
:10010C009D46402292029A1A924600218B460F4637
:10011C001348144A121A03F03BFA0F4B002B00D071
:10012C0098470E4B002B00D098470020002104006C
:10013C000D000D48002802D00C4803F00FFB03F013
:10014C0003FA2000290003F073F903F0EDF9C0461F
:10015C00000008000000000000000000000000008B
:10016C004C05002018530020693700087937000827
:10017C00012210B50024074B1A7120000021013414
:10018C0001F080F90B2CF8D101F09EF901F0AEFCD6
:10019C0010BDC0468445002019491A4A8B6882B0AC
:1001AC0013408B608B68184A802013408B6080232F
:1001BC005B05CB60CA68154B80041343CB600023EE
:1001CC00019380230A685B041343114A0B600B688C
:1001DC00034006D10193019B9342F8D8019B013354
:1001EC00F8E780220B4B92001A608B68FA3AFF3AC0
:1001FC0093438B608B68053A13438B6002B0704756
:10020C0000100240FFF0FFFFFF8FFFFF12080222D9
:10021C003F420F0000200240802210B5024B120515
:10022C009A60FFF7B9FF10BD00ED00E08023164A7D
:10023C005B02116C10B50B4313641F23134A01248A
:10024C009362FA239B00D362842313605169214388
:10025C005161136823431360002809D001211369ED
:10026C001942FCD0136901388B4313610028F6D175
:10027C000121064A13688B431360034A0449136C2B
:10028C000B40136410BDC0460010024000400140FA
:10029C00FFFFFEFF8023164A5B02116C10B50B4367
:1002AC00136400230124134A936253622033D362F4
:1002BC006433136051692143516113682343136004
:1002CC00002809D0012113691942FCD013690138A7
:1002DC008B4313610028F6D10121064A13688B4326
:1002EC001360034A0449136C0B40136410BDC046E1
:1002FC000010024000400140FFFFFEFF80230B4A2C
:10030C001B01116C01200B431364094B094A9A62BF
:10031C00094ADA6284221A6000225A605A625969C8
:10032C00014359611A6802431A6070470010024079
:10033C00002C01407F3E0000FFFF00000121054A18
:10034C0013688B431360044A0449136C0B40136409
:10035C007047C046002C014000100240FFF7FFFF21
:10036C00014B586A40087047002C0140074B5B6AF0
:10037C005B08834204D3181A88428041404270477C
:10038C00C043C018884280414042F8E7002C01402D
:10039C00034B5B6A5B08834200D2013B181A70471F
:1003AC00002C01400121144A30B5536B0B435363AD
:1003BC00BFF35F8FA023F024A025DB051968A143B0
:1003CC0019601C680D492C431C601C6A0C401C6293
:1003DC008824196A64010C431C629968294399604A
:1003EC008023D16B9B020B43D363BFF35F8F092236
:1003FC00034BD8601A6030BD00100240FF00FFFFB5
:10040C000044004010B5064B0649402402E0013B75
:10041C00002B03D0CA691442F9D0886210BDC046C3
:10042C00A086010000440040C023F0B540240D27F5
:10043C00DB000F49C6180578002D0ED00D4B02E0DD
:10044C00013B002B04D0CA691442F9D08D620578A7
:10045C000A2D03D00130B042EDD1F0BD054B02E0C6
:10046C00013B002BF6D0CA691442F9D08F62F1E738
:10047C0000440040A08601000FB4F0B5C64600B59C
:10048C008CB012AB80CB39780193002924D0694B06
:10049C0038000026002240259846674C252922D199
:1004AC00BA185378002B10D0623BDBB2162B00D954
:1004BC0094E041469B00CB589F46019B1A1D18683F
:1004CC000192FFF7B1FF0136B6B20136B6B2B819D8
:1004DC00017832000029E1D10CB004BC9046F0BC8C
:1004EC0008BC04B01847554B02E0013B002B03D06D
:1004FC00E2691542F9D0A16203780A2BE5D14F4B82
:10050C0002E0013B002BE0D0E2691542F9D00D234B
:10051C000136B6B2A362B819017832000029BDD1F8
:10052C00DAE7019B927802CB01930091622A6AD0A0
:10053C00682A75D0772A78D08020000102AA6946F3
:10054C0000F0CEF802A8FFF76FFFBCE70722019B73
:10055C003B48073393431A000832019206CBD30071
:10056C000340490F0B43002A41DB00938023DB053A
:10057C001A4236D180204000E0E7019B927802CBF2
:10058C0001930091622A3AD0682A41D02020772A20
:10059C00D4D10136B6B22020D0E7019B927802CBA1
:1005AC0001930091622A26D0682A35D00420772A3C
:1005BC00C4D10136B6B20420C0E7019B1A1D1968DC
:1005CC0001921E4B03E0013B002B00D17BE7E2695B
:1005DC001542F8D0FF230B40A36274E7002300936D
:1005EC0071E78020009A400013430093A6E7802116
:1005FC0009060B43B9E70136B6B201209EE7013676
:10060C00B6B208209AE780200136B6B2800095E792
:10061C000136B6B2102091E70136B6B202208DE752
:10062C0080200136B6B2C00088E780200136B6B211
:10063C00000183E74839000800440040A08601000F
:10064C00F8FFFF3FF8B505000C003027461E0A489E
:10065C0009352F70844208D3312200E01A00531C54
:10066C00241ADBB28442F9D22A700A21013D01F02E
:10067C0083FCAE42EDD1F8BD00CA9A3B70B50400C4
:10068C00002609342378302B1DD00C88751C13558B
:10069C000B88EDB201339BB20B800A2D10D0441B9A
:1006AC00401B0825AD1BEDB2401B093408302578E2
:1006BC00013CD5540B8801339BB20B80A042F6D180
:1006CC000021D15470BD092E03D00136F6B2013C85
:1006DC00D8E7088813540B8801339BB20B80EFE7E3
:1006EC00F0B54E46DE465746454600239146E0B5EA
:1006FC0087B002AA53804A46137080235B0098424D
:10070C0000D10AE121D980231B01984200D1D6E007
:10071C0000D97DE080239B0098423BD08023DB00F6
:10072C00984250D10F200B68141D1B0B0340092B52
:10073C006BD8303313700B6801321B010B60944281
:10074C00F3D100234A4613713DE0042800D1C9E0DF
:10075C0000D98AE001283DD0022834D14C468020B3
:10076C0010340B6800023026312506E015700B683A
:10077C0001325B000B60944208D00342F6D1167034
:10078C000B6801325B000B609442F6D100234A46A1
:10079C00137418E00B681B061B0F092B00D87BE1A8
:1007AC00373313700B681B010B601B061B0F092BD7
:1007BC0000D974E14A46303353700B684A461B012A
:1007CC000B600023937007B03CBC90469946A24640
:1007DC00AB46F0BD4C460B680834802030263125E2
:1007EC0006E015700B6801325B000B60944208D078
:1007FC000342F6D116700B6801325B000B60944219
:10080C00F6D100234A461372DDE73733137092E7B3
:10081C0080239B01984207D08023DB01984203D0B0
:10082C0080235B019842CED102AB0D259C4630262D
:10083C000C68AF486544DF1C2E70A04206D83023EC
:10084C000133DBB2241A8442FAD22B700A21013D07
:10085C0001F092FBAF42EFD103AB9B4602AB4A4691
:10086C00991C5846FFF70AFFADE7102803D0202843
:10087C0001D00828A7D10C68002C08DA2D234A4691
:10088C0013700C682C3B02AA644253800C6002ABC0
:10089C000D259C46302696486544DF1C2E70A042E0
:1008AC0006D830230133DBB2241A8442FAD22B70DF
:1008BC000A21013D01F060FBAF42EFD1CCE74C4681
:1008CC000B68083407E0303010700B6801321B01E4
:1008DC000B60A24295D01B0FD8B2092BF3D937303D
:1008EC001070F2E748460B6820303024312506E0C2
:1008FC0014700B6801325B000B60904208D0002B27
:10090C00F6DA15700B6801325B000B609042F6D181
:10091C00202300224946CA5455E70E680021301C9A
:10092C0001F0B2FC002809D02D234A4613702C3B51
:10093C0002AA538080231B069C466644FE21301C71
:10094C00890501F0A1FC002800D0ACE0FE21301C90
:10095C00890501F0ADFC002800D1C1E0FE27002480
:10096C00BF0500E02C006349381C01F0A5FE651C96
:10097C00071C011C301CADB201F09AFC0028F1D10F
:10098C005C49381C01F0C0FC051C20230193291C78
:10099C00301C01F0B9FC061C01F09EFC050002F0B5
:1009AC00A1F9011C301C01F0B9FF534901F084FE80
:1009BC0001F092FC02AA94460D236344984603234B
:1009CC0063449B46302347469A46060048485346A4
:1009DC003B70A84206D830230133DBB22D1A854276
:1009EC00FAD23B700A21013F01F0C6FABB45EED1A9
:1009FC0003AB9B4602AB991C58464A46FFF73EFE9A
:100A0C00302345469A463A4853462B70B04208D894
:100A1C00312200E01A00531C361ADBB28642F9D29E
:100A2C002A700A21013D01F0A7FABD42ECD12E2318
:100A3C005A46D37002AB991C4A465846FFF71EFE25
:100A4C0002AB5A88494665238B54531C02A99BB2AE
:100A5C004B8001992D2905D1494601980232C85481
:100A6C0002AB5A803026224843461E70A04209D859
:100A7C00312200E01A00531C241ADBB28442F9D252
:100A8C0043461A700A2101F077FA01235B429C4617
:100A9C00E0444545E8D1E1E63033137082E64A463E
:100AAC003733537089E61549301C01F0EDFB0124F6
:100ABC00002818D0114D281C02F0C6FB104A114B0F
:100ACC0002F050F902F012FC0134051C011C301C20
:100ADC00A4B201F0D9FB0028EDD12D23019356E7E8
:100AEC00094C064D51E72D23044D01934FE7C046A9
:100AFC0000CA9A3B0000204100007A44CDCCCC3D8A
:100B0C009A9999999999B93FFFFF0000F0B557460A
:100B1C00DE464E4645460023E0B589B0934604AA0E
:100B2C00538020230293002303931F005B46009005
:100B3C0002788B4600209A46002A10D000281CD13F
:100B4C00252A18D0514604AB5B88CA54013304AA39
:100B5C0053800137009BBFB2DA5D002AEED1002230
:100B6C00514604AB5B88CA5409B03CBC90469946CC
:100B7C00A246AB46F0BD0120EBE7012805D1642A63
:100B8C0000D181E0632A3BD10320D946BB465B46AA
:100B9C0001339BB29B46009B5B440193022840D0DF
:100BAC0003281ED0042871D0052800D173E15146CA
:100BBC0004AB5B88C918062800D111E1072800D1C5
:100BCC009BE1082800D17FE15C1CA4B2092800D16C
:100BDC0024E104AB5C80019B0A705F461A78CB461B
:100BEC00AAE74A46514604AB5B881268CA540133E3
:100BFC0004AA5380019B1A78002AB0D00A20C6E7B9
:100C0C00662A00D108E1732A00D1A5E1622A00D13D
:100C1C00AAE1682A00D1AEE1482A00D0A6E108205A
:100C2C00B3E74B461C68002C08DA2D22514604AB66
:100C3C005B886442CA54013304AA538004AB0D256B
:100C4C009C463026CD486544DF1C2E70A04208D847
:100C5C00312200E01A00531C241ADBB28442F9D270
:100C6C002A700A21013D01F087F9AF42EDD104ABA6
:100C7C005246991C05A8FFF701FD019B1A78002A22
:100C8C0000D16CE70A2082E702207EE74B461F6802
:100C9C000021381C01F0F8FA002800D0EEE0FE210B
:100CAC00381C890501F0F0FA002800D0C8E0FE21BC
:100CBC00381C890501F0FCFA002800D14EE1FE2613
:100CCC000024B60500E02C00AD49301C01F0F4FC0A
:100CDC00651C061C011C381CADB201F0E9FA002899
:100CEC00F1D1A749301C01F00FFB051C291C381C45
:100CFC0001F00AFB061C01F0EFFA050001F0F2FF0F
:100D0C00011C301C01F00AFE9E4901F0D5FC01F0DB
:100D1C00E3FA04AA0D239446634498461F00060088
:100D2C00964830233B70A84208D8312200E01A00C4
:100D3C00531C2D1ADBB28542F9D23A700A2101F00C
:100D4C001BF904AB013F0333BB42EAD1454604AB6C
:100D5C0005A85246991CFFF791FC884830232B704C
:100D6C00B04208D8312200E01A00531C361ADBB20C
:100D7C008642F9D22A700A21013D01F0FDF8AF42FA
:100D8C00ECD12E2304AAD37104AB991C524605A8AE
:100D9C00FFF774FC04AB5A88514665238B54531CE3
:100DAC0004A99BB24B8002992D2905D1514602987A
:100DBC000232C85404AB5A80302647466F483E7006
:100DCC00A04206D830230133DBB2241A8442FAD273
:100DDC003B700A21013F01F0CFF8BD42EFD146E74D
:100DEC0018004A462030126880B23024312556460D
:100DFC0006E001339BB20C705200984208D0F118F7
:100E0C00002AF6DA01339BB20D7052009842F6D1EB
:100E1C0004ABB2465880EDE60420B6E64A4612789A
:100E2C001009092800D890E0373008700F2154447D
:100E3C000A40092A00D98BE0303222700233D7E6FF
:100E4C005149381C01F020FA002800D189E0012416
:100E5C004D4D281C02F0F8F94C4A4D4B01F082FF25
:100E6C0002F044FA0134051C011C381CA4B201F038
:100E7C000BFA0028EDD12D23029337E72D22514692
:100E8C0004AB5B88CA54013304AA538080231B062D
:100E9C009C46674403E74B46039A995C002900D1B2
:100EAC00A8E64C46554604AB5B88D01AE95401338E
:100EBC009BB21A1892B2A15C0029F7D104A9A146E1
:100ECC00AA464B80039295E64A4628301278087061
:100EDC0048304870991C89B210095144092831D8FE
:100EEC00303008700F20D91C89B202405144092AB5
:100EFC0024D830320A7004337AE64A46106830221D
:100F0C000A7048324A709A1C0A3392B29DB2574604
:100F1C0006E00132303192B23170000195420BD0B3
:100F2C00040FE1B2BE18092CF3D90132373192B259
:100F3C00317000019542F3D1BA4659E637320A7046
:100F4C00043355E637300870CCE7303008706DE765
:100F5C003732227002334BE6052016E60D4C0A4D53
:100F6C00C4E60124084D86E706200EE6782A00D058
:100F7C0005E6092009E6072007E6C04600CA9A3BA9
:100F8C000000204100007A44CDCCCC3D9A9999992F
:100F9C009999B93FFFFF00000B7810B504000020B1
:100FAC00002B08D000220130A35480B20B5C02004D
:100FBC00002BF8D124180023237010BD10B5037832
:100FCC000400002B16D00020013080B223181A78B0
:100FDC00002AF9D10A78002A09D0002301332254BF
:100FEC009BB2CA5C013080B2002AF7D123180022D0
:100FFC001A7010BD03000020ECE7C0460378020015
:10100C000020002B04D0013080B2135C002BFAD1ED
:10101C007047C04670B505780400002D28D000221A
:10102C00013292B2A35C002BFAD10E78002E19D0AB
:10103C00002301339BB2C85C0028FAD1934200D044
:10104C0070BD002B0CD0AE4210D1012205E0551C16
:10105C00A05C8A5C904209D12A0090B28342F6D8F7
:10106C000220EDE7504250414000E9E70120E7E75C
:10107C000E780022002EDBD10220E1E730B50024EF
:10108C00994201D0200030BD00290ED0047813788D
:10109C009C420CD1012305E05D1CC45CD35C9C42DA
:1010AC0005D12B009CB2A142F6D80224EAE7012418
:1010BC00E8E7C046F0B5DE4657464E464546FF22A9
:1010CC00E0B53D4B85B00393120600238346904652
:1010DC0000269A46019118334446019A6421144023
:1010EC00DC404346E4B21B0A2000984600F044FF63
:1010FC00B1465B46751CEDB2C0B2D9445F190028ED
:10110C0018D10A21200000F037FFC2B2002A3BD1CF
:10111C0035004B4630341C705346032B2BD02E23FA
:10112C003B7001239C46E2445246023503ABEEB2BF
:10113C009B5CD1E703004A46303313708300C3181D
:10114C005A01D31AC0182418E4B20A21200000F066
:10115C0013FFC2B2002A28D1B51CEDB2A946302328
:10116C00D9443B704B4630341C7053460336F7B2AF
:10117C005F44032BD3D100233B7005B03CBC90469D
:10118C009946A246AB46F0BD3B00110048463031B3
:10119C0001705001801A8000801A40006F1C2418C6
:1011AC00FFB2E4B25F449946B3E75B460236F5B250
:1011BC005B19B946E9E7C04618100800002310B5C2
:1011CC00C45CDAB28C4205D001330B2BF8D100246D
:1011DC00200010BD002AFAD0012300248118013907
:1011EC000978013A3039594364189900CB18D2B2B6
:1011FC005B00002AF2D1EBE7904BF0B545469846E0
:10120C008F4B4E4643449C46D4235746DE464146BC
:10121C005B00E0B51020282600272A25994687B0C8
:10122C0010393300083B1A1D92008F501A00A5325A
:10123C00FF3292008A1801335060B342F3D11C0084
:10124C0018341A1D92008D501A00A532FF329200EC
:10125C008A18013350609C42F3D120364E45E0D1C0
:10126C008222A22000251024FF32FF30131D9B0088
:10127C00CD501300A533FF339B00CB1801325C60BB
:10128C008242F3D100222A201024131D9B00C85047
:10129C001300A533FF339B00CB1801325C60202A6E
:1012AC00F3D1684B0022C850D223DB00CA50D023A4
:1012BC005B0040252A260027994663482B00203BDB
:1012CC000268AB4205D30DE001330E515200AB4224
:1012DC0008D01C1DA400002AF6DA01330F5152006D
:1012EC00AB42F6D120354D45E8D10024E722574BCF
:1012FC000C704B60564B1206CA50564B012500938E
:10130C00554B564A0193564B0293564B0393434607
:10131C00049363460593536B2B435363BFF35F8F67
:10132C00A023DB051968504E31401960A0211F68BD
:10133C00090239431960196A0902090A19628821DC
:10134C001F6A49053943C027196299683140996071
:10135C005968B9435960D9683140D9600223D16BBF
:10136C001943D1630421414B9C6219601C315C60B0
:10137C005C62D9620A31596399633D49DC631C6430
:10138C00996133211962CD31D9603A491961936B56
:10139C002B439363BFF35F8F00239B46A333FF3331
:1013AC009A46C0239B019946802398468133FF338C
:1013BC0001219C4602AF04AE6B465A461B591A607B
:1013CC001A681142FCD13A594D469A60325904348C
:1013DC00DA6052465A601A682A4345461A601A68FF
:1013EC002A4365461A601A682A4380251A601A68CF
:1013FC002D012A4310251A601A682A431A60082CFA
:10140C00DAD11D4BEF351A681D34AA431A601968DE
:10141C0021431960194B1968A94319601A682243B2
:10142C001A60E7231B0603601548FFF725F807B081
:10143C003CBC90469946A246AB46F0BDD445002034
:10144C0084060000140D000078050020FFFFFF004B
:10145C00180D0000080002401C0002400010024061
:10146C003404004038040040FF0FFFFF000400402C
:10147C0060600000FFFF000000080240040802400A
:10148C00204400080130400102000D4B20321B6843
:10149C0070B51943904211D20A4C2A25002604E05B
:1014AC000130E5504900824208D0031D9B00002901
:1014BC00F6DA0130E65049008242F6D170BDC046E2
:1014CC0078050020C44500200F2070B5F0260021BF
:1014DC00A2251D4B1D4C5A68FF3502435A605A68B1
:1014EC0032435A601A4A51621A4911611A496560AD
:1014FC004D605D6805435D6058683043586001205D
:10150C000B6803430B602368034323600624536971
:10151C0023435361136803431360104B02E0013BF8
:10152C00002B02D04A68002AF9D1012208490B6825
:10153C0093430B6005490B6893430B6006490B689A
:10154C0093430B6070BDC04600000240080002408F
:10155C0000040040FFFF00001C00024000E1F50504
:10156C00F0B5DE4657464E464546E0B5BD4CBE4B43
:10157C0083B0E35CDBB2012B00D1A6E0002B62D080
:10158C00022B11D0032B08D1D2252D016059C82173
:10159C00FEF7ECFE071E00D1DEE003B03CBC90462B
:1015AC009946A246AB46F0BDD2252D016059322199
:1015BC00FEF7DCFE0028F0D1FEF7D2FEAB4E6051F8
:1015CC00737B0093002B00D05AE1337B0133DBB2E9
:1015DC0033731D2B00D9D6E118000321984600F077
:1015EC0051FDC900CBB29C46A14B9B4643465A4683
:1015FC009B00D35C01939F4B40279946D0235B0003
:10160C009A464B462A22B14600251E003B00203B41
:10161C003168BB4205D30DE0013322504900BB4277
:10162C0008D0181D80000029F6DA01332550490036
:10163C00BB42F6D120375745E8D133004E46994688
:10164C0043469B002EE1D2263601A0593221FEF7EB
:10165C008DFE051EA1D1FEF783FEA0518648834E58
:10166C000178002900D04CE17578002D00D178E18B
:10167C00C822B3783233DBB29A4249419A42924142
:10168C00524271703271F1783278B3701B021204CD
:10169C001A43337B0A4301335B0118007549203030
:1016AC000968B2600A43834200D345E12A2500272A
:1016BC0005E0655001335200984200D13CE1191D00
:1016CC008900002AF5DA6750F4E7D225FA212D01BA
:1016DC0060594900FEF74AFE002800D05DE7FEF78E
:1016EC003FFE2C23614E6051327B402053439C467D
:1016FC00604B624A9946D0235B0098463300944471
:10170C0066462A2500279C464A4603001268316823
:10171C00203B0A43834205D30DE001336550520050
:10172C00834208D0191D8900002AF6DA013367506C
:10173C0052008342F6D1203004364045E4D166464F
:10174C00FFF7C2FE337B0133DBB23373322B00D88D
:10175C0023E70023337320E7FEF702FE434E60516C
:10176C00337B0133DBB233731D2B72D8180003218A
:10177C00984600F087FCC900CBB201933C4B9B46CA
:10178C0043465A469B00D35C9A463A4B40259946B1
:10179C00D0235B009C464B462A27B14600201E00F6
:1017AC002B00203B3268AB4205D30DE00133675070
:1017BC005200AB4208D0191D8900002AF6DA013319
:1017CC0060505200AB42F6D120356545E8D133006C
:1017DC004E469946737B00969C4643469F000137C4
:1017EC0063463A000433DBB25A44984666462A21D3
:1017FC000025534694464A461268782092465A462B
:10180C0001339219125C5B0101981F008240504613
:10181C0020370243BB4212D20098824604E00133C7
:10182C00215052009F4208D0181D8000002AF6DA81
:10183C000133255052009F42F6D153460093013696
:10184C00F6B2B0456CD00122634692461B78D44464
:10185C00D1E701239A46002301939846044B377332
:10186C009B4692E7C44500201C0D00006805002033
:10187C00A43900087805002008000020383A000838
:10188C00337B03211800984600F0FCFBC900CBB257
:10189C009C46604B9B4643465A469B00D25C019249
:1018AC005D4A91467821009A2A205A44515C9B4407
:1018BC006246002391409C463200884666460027CB
:1018CC009446019B01335B014A461D004146126858
:1018DC0020350A43AB4205D30DE001336050520072
:1018EC009D4208D0191D8900002AF6DA0133675091
:1018FC0052009D42F6D10136042E27D05B469B5DEB
:10190C00E0E7C8233278F1783232D2B293426D419B
:10191C0093429B415B42737032700570B378B5E6AD
:10192C004346009E7373FFF7CFFD737B192B00D8D2
:10193C0033E60023737330E6FFF7C6FD337B0133C8
:10194C00DBB233730B2B00D827E602E76646009D0B
:10195C0001357573FFF7B8FD737B192B00D81CE6A6
:10196C00E7E73379002B18D0C823F2783232D1B2A2
:10197C008B426D418B429B415B427371F1703571AF
:10198C003278B37882E6009B3373012301930023F2
:10199C009C4698461F4B9B462DE6717900290ED02C
:1019AC0031203278323AD2B29042894190425B4136
:1019BC0049427171B3713270B378F17866E6B379DC
:1019CC00002B0ED03120B378323BDBB298429241DF
:1019DC00984249415242B271F171B3703278F17848
:1019EC0054E6F279002A0ED03125F278323AD1B28F
:1019FC008D4292418D425B415242F2710370F17003
:101A0C003278B37842E600213270B270F2700B007B
:101A1C003CE6C046A439000878050020802200214D
:101A2C000220284BD20110B59954274A9952274AC3
:101A3C009952274A536B03435363BFF35F8F0C24B4
:101A4C00244B1868A04318601868043C20431860A5
:101A5C00186A18628023106C1B0203432020136445
:101A6C001D4B98621C381860FA208000596059622E
:101A7C00D8625963603199615D39196217491961EE
:101A8C0001211868084318608023106C9B020343E3
:101A9C001364BFF35F8F124B124A9A626422DA62AC
:101AAC0020321A60523A5A635A690A435A61DA6808
:101ABC000A43DA601A681143802219600A4B9203B8
:101ACC001A6010BD7C05002002400000044000009C
:101ADC00001002400004005000200040FFFF0000F6
:101AEC0000440140FF7C000000E100E00121094AB4
:101AFC0013688B431360084A13688B431360074BBE
:101B0C0007491A6C0A401A641A6C06490A401A648E
:101B1C007047C046004401400020004000100240C5
:101B2C00FF7FFFFFFFFFFDFF0121284A70B51368FF
:101B3C008B4313601369194233D080256D01AC4679
:101B4C00234B244C185B60444000C05A80B2D062D6
:101B5C00185B60444000C05A400850638020C001AC
:101B6C001A5CD2B2002A24D11B4E75694D407561A6
:101B7C0019541A48056829430160195B4900C95A70
:101B8C0089B2C162195B4900C95A49084163195BA2
:101B9C00013189B219531249185B595A884200D342
:101BAC001A5300220121094B1A611A680A431A6060
:101BBC0070BD094C62694A40626100241C54074B99
:101BCC001A688A431A605C62EBE7C0460044014025
:101BDC007C05002004400000000400500020004060
:101BEC0002400000F8B5DE46454657464E460023F7
:101BFC00E0B50600FA20284D284F8846EB530978AB
:101C0C008000934600F042FA80235B019C465B46C1
:101C1C00EC5B80B2A4B2644464002853002B34D033
:101C2C0043461978002930D001239C465B465B0063
:101C3C009946B21EE044914407E0434619780123CB
:101C4C009C460236E04400291FD0FA2033888000DD
:101C5C009A4600F01BFA80235B019C46EC5B80B239
:101C6C00A4B2644464002853EB5B5B450BD2EC5B81
:101C7C005146A4B2631C9BB2EB53094800F006FA20
:101C8C00640080B228534E45D7D100203CBC90460E
:101C9C009946A246AB46F8BD7C05002002400000E8
:101CAC0040420F0001211C4AF8B5536B0B435363A0
:101CBC00BFF35F8FA022D20513681849184C0B4054
:101CCC001360636E174A80251340636620238421BA
:101CDC00625900261A43625162589A436250226834
:101CEC001A43226062689A436260FEF739FB0E4B1E
:101CFC000E4F18601E710E4BFE54FEF731FBD223B3
:101D0C001B01F85001235B42E3600A4B00201E705C
:101D1C00094B1D60F8BDC04600100240FFF3FFFFE9
:101D2C0000180240FFF8FFFF84450020C445002046
:101D3C001C0D0000B045002000E100E00D4BDA68FE
:101D4C002023134209D0A022D2051269134205D1D7
:101D5C002021084AD3680B43D3607047064A137896
:101D6C00DBB2002BF4D153609360D360013313705A
:101D7C00EEE7C04600180240B045002070B55B4C41
:101D8C002378DBB2052B22D8594A9B00D3589F46A7
:101D9C00A1685848E2686368FEF76EFBFEF7E0FA4C
:101DAC00554E5649564A30608B5C0133DBB28B542E
:101DBC008B5C032B00D98D543379012B00D17EE041
:101DCC00002301223371627002322270636070BD95
:101DDC0020690A21FEF7CAFA0028F8D1A023202591
:101DEC00DB051B691D4045D16368642B45D8052371
:101DFC002370FEF7B5FA2061E9E702232370FEF7A2
:101E0C00AFFA2061E3E720693221FEF7AFFA051E35
:101E1C0020D16420A3686168584300F0ADF85028C5
:101E2C00B6D82570D3E7A023DB051B699B06CED45F
:101E3C0004232370FEF794FA206163680133636016
:101E4C00C5E720693221FEF791FA0028BFD16070F6
:101E5C002070BCE7636801336360A023DB051B695A
:101E6C009B0603D5A3680133A360B0E7E368013395
:101E7C00E360ACE703232370A9E7FFF737FE1E4EA0
:101E8C0073790133DBB273717379022B00D97571DD
:101E9C00FFF7C4FD71791B4A4B005B189B009858E7
:101EAC0071794B005B189B00D318596875796B00DE
:101EBC005B199B00D218127AFFF794FE97E7FFF795
:101ECC00ADFD71790F4A4B005B189B0098587179E6
:101EDC004B005B189B00D318596875796B005B1924
:101EEC009B00D218127AFFF77DFE69E7B0450020FF
:101EFC00D04200083C44000884450020C445002022
:101F0C001C0D00008C45002010B5FEF729FA0022AC
:101F1C000C4B1C2118601A715A719A710A4B0B4A9E
:101F2C001A600B4A5A601D221A720A4ADA600A4A6F
:101F3C001A611E221A75094A9A61094ADA6120222D
:101F4C00995410BD844500208C450020DC000020F5
:101F5C00BC00002080000020600000202800002031
:101F6C000C00002074440008000000204C050020E8
:101F7C004C05002018530020002243088B4274D3D8
:101F8C0003098B425FD3030A8B4244D3030B8B426E
:101F9C0028D3030C8B420DD3FF22090212BA030C77
:101FAC008B4202D31212090265D0030B8B4219D358
:101FBC0000E0090AC30B8B4201D3CB03C01A524178
:101FCC00830B8B4201D38B03C01A5241430B8B42C0
:101FDC0001D34B03C01A5241030B8B4201D30B03A9
:101FEC00C01A5241C30A8B4201D3CB02C01A5241D0
:101FFC00830A8B4201D38B02C01A5241430A8B4293
:10200C0001D34B02C01A5241030A8B4201D30B027B
:10201C00C01A5241CDD2C3098B4201D3CB01C01A95
:10202C00524183098B4201D38B01C01A524143099F
:10203C008B4201D34B01C01A524103098B4201D38D
:10204C000B01C01A5241C3088B4201D3CB00C01AFA
:10205C00524183088B4201D38B00C01A5241430872
:10206C008B4201D34B00C01A5241411A00D2014697
:10207C00524110467047FFE701B5002000F0F0F820
:10208C0002BDC0460029F7D076E7704703460B43E4
:10209C007FD4002243088B4274D303098B425FD355
:1020AC00030A8B4244D3030B8B4228D3030C8B4281
:1020BC000DD3FF22090212BA030C8B4202D3121267
:1020CC00090265D0030B8B4219D300E0090AC30B3C
:1020DC008B4201D3CB03C01A5241830B8B4201D3E9
:1020EC008B03C01A5241430B8B4201D34B03C01AD2
:1020FC005241030B8B4201D30B03C01A5241C30A4A
:10210C008B4201D3CB02C01A5241830A8B4201D3BA
:10211C008B02C01A5241430A8B4201D34B02C01AA4
:10212C005241030A8B4201D30B02C01A5241CDD249
:10213C00C3098B4201D3CB01C01A524183098B4294
:10214C0001D38B01C01A524143098B4201D34B017D
:10215C00C01A524103098B4201D30B01C01A5241E0
:10216C00C3088B4201D3CB00C01A524183088B4267
:10217C0001D38B00C01A524143088B4201D34B0050
:10218C00C01A5241411A00D20146524110467047C2
:10219C005DE0CA0F00D04942031000D340425340C7
:1021AC0000229C4603098B422DD3030A8B4212D387
:1021BC00FC22890112BA030A8B420CD389019211B9
:1021CC008B4208D3890192118B4204D389013AD0F6
:1021DC00921100E08909C3098B4201D3CB01C01ACB
:1021EC00524183098B4201D38B01C01A52414309DE
:1021FC008B4201D34B01C01A524103098B4201D3CC
:10220C000B01C01A5241C3088B4201D3CB00C01A38
:10221C00524183088B4201D38B00C01A5241D9D250
:10222C0043088B4201D34B00C01A5241411A00D2D1
:10223C000146634652415B10104601D34042002BCD
:10224C0000D54942704763465B1000D3404201B54C
:10225C00002000F005F802BD0029F8D016E7704701
:10226C007047C0468446081C6146FFE71FB500F066
:10227C00D3F9002801D40021C8421FBD10B500F0CD
:10228C0055F94042013010BD10B500F0C5F90028D9
:10229C0001DB002010BD012010BDC04610B500F0C0
:1022AC00BBF9002801DD002010BD012010BDC04687
:1022BC0010B500F063F9002801DC002010BD0120EE
:1022CC0010BDC04610B500F059F9002801DA002005
:1022DC0010BD012010BDC0469E2110B5C905041CBF
:1022EC00FFF7F0FF002803D1201C00F0DBFC10BD31
:1022FC009E21201CC90500F011FB00F0D3FC8023AB
:10230C001B069C466044F2E7F8B557464E464546D8
:10231C00DE464402E0B546008846640A360EC70F16
:10232C00002E63D0FF2E24D08023E400DB041C435A
:10233C00002399469B467F3E434642465D02D20FA0
:10234C005B006D0A1B0E9046924665D0FF2B55D054
:10235C0080220021ED00D2047F3B1543F61A434640
:10236C004A467B400F2A00D98DE06D489200825876
:10237C009746002C54D108239946063BFF269B46D2
:10238C00DAE70025534602291BD0032900D1BFE010
:10239C00012928D030007F30002820DD6A0704D0C6
:1023AC000F222A40042A00D004352A0103D530001C
:1023BC005C4A80301540FE2803DCAC01640AC2B2D2
:1023CC0001E0FF2200246402D205600ADB071043FF
:1023DC0018433CBC90469946A246AB46F8BD012238
:1023EC00101A1B287CDD00220024ECE7002C1DD1E8
:1023FC0004239946033B00269B469DE7FF3E002D98
:10240C0020D1022143464A467B400A430F2AD8D8A2
:10241C004548920082589746002D19D10121F1E7C9
:10242C000C239946093BFF269B4685E7200000F0CC
:10243C00E1FF7626431F9C4000237642361A9946CC
:10244C009B4679E74A4603231A439146032186E7C4
:10245C00280000F0CFFF431F36189D407636002130
:10246C007DE780240023E403FF22ACE700258023D2
:10247C00DB031C4228D01D4226D12B435C02640A8C
:10248C004346FF229FE762016C01A24224D21B212A
:10249C000025013E012710006D005200002801DBD1
:1024AC00944201D8121B3D4301390029F3D1140089
:1024BC00621E944125436DE7BA46594625005346A2
:1024CC00022900D061E77CE78023DB031C43640214
:1024DC00640A3B00FF2276E7121B1A210125D9E77B
:1024EC009E362A00B5402C00C240651EAC411443F8
:1024FC00620704D00F222240042A00D00434620167
:10250C0003D4A401640A00225DE7012200245AE7E7
:10251C008024E4032C436402640AFF2253E7C04680
:10252C00E8420008FFFFFFF72843000870B542009F
:10253C004E024C0045026D0A120EC30F760A240E91
:10254C00C90FFF2A0FD0FF2C11D00120A24200D0BE
:10255C0070BDB542FCD18B420DD0002AF8D12800B9
:10256C00451EA841F4E70120002DF1D1EBE7012035
:10257C00002EEDD1E9E70020EAE7C04670B54A002D
:10258C004E02450244006D0A240EC30F760A120E49
:10259C00C90FFF2C15D0FF2A0ED0002C15D1002A04
:1025AC0001D1002E1CD0002D14D08B4227D002203C
:1025BC00013B1840013870BD002EEED00220404285
:1025CC00F9E7002DFAD1FF2A0ED0002A0ED1002EE9
:1025DC00EDD00BE001230139994308000130EAE703
:1025EC000020002DE7D0E2E7002EE7D18B42DED1B0
:1025FC00944205DD0221581E08400138DBE7002417
:10260C00A24204DCB542D2D80020B542D3D2581E27
:10261C00012398430130CEE730B5420044024D020D
:10262C00C30F4800640A120E6D0A000EC90FFF2A70
:10263C0012D0FF280CD0002A12D1002819D1002D5D
:10264C0017D1002C2BD00220013B1840013826E07A
:10265C00002DF0D0022022E0002CFBD1FF281FD04F
:10266C0000281FD1002D1DD10220013B184001383C
:10267C0015E0002C0ED08B42E5D10022904204DCF8
:10268C00AC42E0D80020AC4209D2581E012398433A
:10269C00013004E00123013999430800013030BDB9
:1026AC00002DD7D18B42CED18242E7DD0221581EBC
:1026BC0008400138F3E7C046F0B54E46574645464C
:1026CC00DE46E0B543025B0A450083B00F1C994619
:1026DC002D0EC60F002D57D0FF2D24D08020DB00EF
:1026EC00C0041843002381469A469B467F3D7C02DA
:1026FC007A00FB0F640A120E984623D0FF2A4BD0A7
:10270C00E30080240020E4047F3A1C43AD186B1CCA
:10271C0047460193534677403A000F2B48D87D49E2
:10272C009B00CB589F46002B00D085E008339A467F
:10273C00063B9B467C027A00FB0FFF25640A120EB7
:10274C009846DBD1002C00D090E0524601231A436E
:10275C0092460120DBE74C4658461700022824D04D
:10276C00032800D1CFE00022002301284DD15802CC
:10277C00D205400AFF071043384303B03CBC9046D7
:10278C009946A246AB46F0BD002B5BD104239A467A
:10279C00033B00259B46AAE7FF35002C60D152462F
:1027AC0002231A4392460220B1E7FF220023DEE700
:1027BC004B461B0C9C464B462604360C18046146B3
:1027CC003300220C6446000C43434E4350435443A5
:1027DC0080191A0C1218964203D9802149028C4692
:1027EC0064441B041B0C1004C01883015E1EB3410F
:1027FC00800E1843130C1B199B0103431C0023016F
:10280C0079D5012362081C401443019A7F32002AB7
:10281C004DDD630704D00F232340042B00D0043478
:10282C00230103D53C4B019A1C408032FE2ABCDCB0
:10283C00A3015B0AD2B29AE70C239A46093BFF2507
:10284C009B4654E7180000F0D5FD4A46431F7625F9
:10285C009A4000236D4291462D1A9A469B4646E7B4
:10286C00524603231A439246032050E7200000F0FF
:10287C00C1FD431F2D1A9C40763D002047E7802365
:10288C000027DB03FF2272E7424666E74C46320024
:10289C00584662E780234A46DB031A4222D01C4288
:1028AC0020D123435B025B0A4746FF225FE70123EB
:1028BC009A1A1B2A21DC23000199D3409E318C40AB
:1028CC001A0023005C1EA34113435A0704D00F22A5
:1028DC001A40042A00D004335A0111D49B015B0A1C
:1028EC00002244E780234A46DB0313435B025B0A66
:1028FC003700FF223BE7019587E70022002336E7EC
:10290C000122002333E78023DB0323435B025B0AB2
:10291C00FF222CE768430008FFFFFFF7F8B5474696
:10292C00CE464400C20F80B547024802400A844696
:10293C00664648007F0A240EF60025009046FB00F0
:10294C00000EC90FB146FF2800D185E00126714069
:10295C00261A914257D0002E43DD002800D07FE08C
:10296C004946002900D1AAE0013E002E00D0F7E034
:10297C005B1A5A0100D48BE09B019C09200000F0EB
:10298C0039FD05388440854200DDD3E0451B23002A
:10299C0020200135EB40451BAC40621E9441234383
:1029AC00072400251C40012241460A40002C04D07B
:1029BC000F211940042900D00433590100D480E0C0
:1029CC000135ECB2FF2D00D0A3E0FF2400235B0205
:1029DC00E405580AD207204310430CBC9046994694
:1029EC00F8BD002E74D1601CC0B2012800DCA7E039
:1029FC004A469C1A620100D5B6E0002CBED10022DA
:102A0C0000240023E3E7002E00DC85E0002846D0FC
:102A1C00FF2C49D080224846D20410438146012223
:102A2C001B2E09DC20204C46801B84404A4620008B
:102A3C00F240441EA04102439B185A0128D501358F
:102A4C00FF2D00D1A8E00122072494491A405B080D
:102A5C000B4013431C40A6E7002E00D078E775E727
:102A6C00FF2C54D080224946D204114389460122BE
:102A7C001B2E09DC20214846891B88404A46010050
:102A8C00F240481E81410A439B1A5A0100D573E754
:102A9C00012241460A40590700D089E711E0484617
:102AAC00002858D1FF2C0CD1DB08002B00D18CE76F
:102ABC008020C00303435B025B0AFF2487E7FF2CE3
:102ACC0025D0DB08FF2DF0D05B025B0AECB27EE771
:102ADC00002C4DD0FF2818D08024E40472422343EC
:102AEC001B2A00DDC4E01C002025D440AA1A934008
:102AFC005A1E934123434A460500D31A884638E7A9
:102B0C00721CF8D0F243FF28EAD10A004B46FF258D
:102B1C00D7E79B015B0A5AE7002E41D1651CE9B24D
:102B2C00012945DDFF2D00D14FE707244B445B08FD
:102B3C001C4038E707225A4B2D1A2340144032E729
:102B4C00002C1DD1002B7AD14B46002B00D191E0EB
:102B5C000A000025B5E7013E002E19D14B446CE765
:102B6C00FF2C84D1FF25ACE74A468846D41A05E7EA
:102B7C00002BC5D10A00FF28C8D005004B46A0E7A2
:102B8C00002B49D14B46002B77D00A00FF2598E744
:102B9C00FF2C00D043E787E70A00FF24002316E749
:102BAC00002C15D1002B57D1FF28E6D14B467BE7E3
:102BBC00002C20D1002B57D04946002953D04B4430
:102BCC005A0168D50724364A1C4001251340EAE611
:102BDC00FF28EBD08022D204764213431B2E53DC09
:102BEC002025AD1B1A00AB40F2405C1EA3411343E1
:102BFC004B44050021E7002BD8D04946002900D1D1
:102C0C0052E78021C9030F4200D14DE760460842CC
:102C1C0000D049E74B4647E74846FF25002800D13E
:102C2C004FE78022D203174204D06046104201D1F4
:102C3C004B46884601224146FF250A4041E748465B
:102C4C0000281FD01A1A500120D54A460724D31A3F
:102C5C001C4088460025A6E6741CC9D0F643FF2804
:102C6C00BCD14B4620E799464B460025DB082BE7A9
:102C7C00012340E700220023A9E680230022DB0386
:102C8C00FF24A4E600251CE70123B1E7002AF1D0BC
:102C9C0013000025FCE60025FAE6C046FFFFFF7D89
:102CAC00FFFFFFFB41024200C30F490A120E002036
:102CBC007E2A0DD99D2A0CD8802000040143952A28
:102CCC000ADC9620821AD1404842002B00D1080021
:102CDC007047034A9818FBE7963A9140F4E7C046D0
:102CEC00FFFFFF7F70B5041E34D000F083FB9E22E3
:102CFC00121A962A07DCD2B208282EDD0838844036
:102D0C006002400A21E0992A09DD030021001B33EF
:102D1C0099404B1E994105231B1ADC400C43052896
:102D2C0001DD431F9C4023000D490B40650709D072
:102D3C000F252C40042C05D004335C0102D59F22B6
:102D4C000B40121A9B01580AD2B24002D205400A1B
:102D5C00104370BD00220020F7E76002400AF4E740
:102D6C00FFFFFFFBF0B55746DE464E464546E0B545
:102D7C00834606000F03480087B092461D003F0BA8
:102D8C00400DCC0F002800D16FE0DE4B984238D0BC
:102D9C008023FF001B041F43730F3B430193DA4B4B
:102DAC000027994600239B46F60081442B036900BB
:102DBC001B0B52469846490DED0F002900D185E0BA
:102DCC00D04B994200D173E04346DA0080231B04B8
:102DDC0013435246CC48520F8446134352460020AC
:102DEC006144D20089442100694000918C46012144
:102DFC0049448A460F2F00D990E0C449BF00CF59EF
:102E0C00BF465B463B43019300D06AE1022308278F
:102E1C00002681469B46C9E732005846019B614615
:102E2C000091022800D175E0032800D1FEE10128B1
:102E3C0000D02CE100230027002600253F032A0D9B
:102E4C003F0BB34812053A4302401B051343009A4B
:102E5C005B00D1075B080B433000190007B03CBC8A
:102E6C0090469946A246AB46F0BD5B463B43019368
:102E7C0000D12FE1002F00D1A5E1380000F0BAFA03
:102E8C0003000B3B1C2B00DD96E11D22D31A5A4686
:102E9C000100DA405E4608398F4013008E403B43F8
:102EAC0001939C4B00271B1A994600239B467DE7F8
:102EBC00414653460B4393498C46E144002B00D0CA
:102ECC001AE102220220174300228CE7134300D19F
:102EDC000DE14346002B00D181E1404600F08AFA17
:102EEC0002000B3A1C2A00DD72E10100434608394E
:102EFC008B4098461D239A1A5346D3401A004346DA
:102F0C00134352468A404946081A824989468144ED
:102F1C00002068E77B4B002700268EE7140C120478
:102F2C00120C1100370C3604350C794328008C46F2
:102F3C002E0060436044834656432100300C80468B
:102F4C005846794340440291844506D988468021ED
:102F5C0049028C46E044414602913604010C360C81
:102F6C0000048B4681191E0C1B041B0C03911900C9
:102F7C0079438C46280075436544A8465843050C94
:102F8C0045447743A94203D9802149028C466744C2
:102F9C00290C8C4639000004000C2D042D186144BA
:102FAC00AB4405915946049101990F043F0C080C50
:102FBC00390051434243904602008C46090C8B4623
:102FCC0062437C4344445C44A04503D980214902BC
:102FDC0088464244210C884661460904090C8C46FB
:102FEC0039005943434370437E430F0CF6182404B5
:102FFC00BE19644442448C46B34203D980235B021D
:10300C0098464044029B61469846049B37044344CF
:10301C009B46AB45AD416B420D0405992D0C8C467E
:10302C007F196744FD18A8465D462D19A542A44199
:10303C0093466442A446C344DC448F42BF41984546
:10304C009B4193459241A445A4415B427F421F435F
:10305C00360C52426442BF192243BF1862463818DC
:10306C004302D20D039913436A020A43501E824154
:10307C006146ED0D2A434E023243D90100D4B3E030
:10308C000126500832400243DE0732435B08224CD3
:10309C005444002C62DD510709D00F201040042845
:1030AC0005D0101D9042924152429B180200D9014A
:1030BC0004D580241948E400034054441848844241
:1030CC0000DD27E75E075B02D2081F0B6305164382
:1030DC005B0DB2E6002399460133042700269B467C
:1030EC0064E60323019781460C279B465EE601228A
:1030FC0001201743002276E6032303201F43434697
:10310C0071E6C046FF07000001FCFFFFA843000862
:10311C00FFFF0F800DFCFFFFFF030000FFFFFFFE12
:10312C00FE0700000023802700933F030026434B3B
:10313C0083E6019B3200A446584670E6AC466EE628
:10314C00802701993F0339422DD03B422BD11F439D
:10315C003F033F0B00951600384B6EE601252D1BE7
:10316C00382D00DD66E61F2D40DC35481C00504430
:10317C00160082408440EE40501E8241344314437A
:10318C00EB40620709D00F222240042A05D022000E
:10319C00141D9442804140421B181A023ED5012353
:1031AC000027002649E68027019B3F031F433F036E
:1031BC003F0B0094214B40E603005A46283B9A40B3
:1031CC00002601926DE6584600F014F9203057E6BF
:1031DC0003005246283B9A401300002293E65046C7
:1031EC0000F008F920307BE6CA4650E71F201E008D
:1031FC004042041BE640202D03D0124C5444A34003
:10320C001A43501E8241324307260027164009D02C
:10321C000F200023104014000428B9D122005E07AF
:10322C005B021F0BD2081643002306E680273F03E0
:10323C001F433F033F0B1600004BFEE5FF0700004A
:10324C001E0400003E0400004100090E4B1C70B52A
:10325C00DBB24602750AC40F012B14DDE0239B0080
:10326C006D07360BCB1800210A0D280012051C4DDA
:10327C0032435B052A405B0813435B00E4075B08A1
:10328C002343190070BD002914D1002D1ED0280035
:10329C0000F0B0F80A281CDC0B232A001B1ADA40B9
:1032AC00030015339D400F4B12031B1A5B05160BC5
:1032BC005B0DD8E7002D06D0320B802636036D0748
:1032CC001643094BCFE7084B0026CCE7002300261A
:1032DC00C9E703002A000B3B9A400025E3E7C046F0
:1032EC00FFFF0F8089030000FF070000F0B54C00C2
:1032FC00640D0B03621C5B0A460F5205C90F1E437B
:10330C00C500520D012A29DD374BE718FE2F1CDCB6
:10331C00002F3BDD8001431E98410722F3006D0F07
:10332C0003432B431A40002A04D00F221A40042ACC
:10333C0000D004338022D2041A4024D00137FAB2D0
:10334C00FF2F02D09B01580A01E0FF22002040020F
:10335C00D205400AC90710430843F0BD3543002C81
:10336C0004D1002D0AD100220020F0E7002DECD072
:10337C008020C0033043FF22E9E7002400235B02D6
:10338C00580AE2B2E3E7DB083C00F8E73B001733EE
:10339C00F3DB80231B0433431E26F61B1F2E14DD88
:1033AC0002225242D71B1A00FA401700202E04D0DA
:1033BC000E4A94466444A3401D432B005D1EAB4152
:1033CC0007223B431A400027ADE7094A2800A21800
:1033DC00954093406C1EA541F04007222B430343BC
:1033EC001A4000279FE7C04680FCFFFFA2FCFFFFAE
:1033FC0082FCFFFF1C2101231B04984201D3000C0B
:10340C0010391B0A984201D3000A08391B0998424B
:10341C0001D30009043902A2105C40187047C04661
:10342C000403020201010101000000000000000081
:10343C000121224B70B51A6C0A431A64BFF35F8FDB
:10344C008022D96B52050A43DA63BFF35F8F0221E6
:10345C0016201B4AFF3013698B431361FCF7A2FF44
:10346C00FDF7CAFEFCF74AFFFEF71CFCFEF74CFD0D
:10347C001448FDF701F8FCF773FF134C2060FCF7C0
:10348C0077FE124D04E0FEF779FC2379002B12D065
:10349C002379002BF7D120680D49FCF767FF002832
:1034AC00F1D12800FCF7E8FFFCF762FEFEF766FCA2
:1034BC002379002BECD1FEF753F8E9E7001002401A
:1034CC0000ED00E0E84300088445002008440008B3
:1034DC00307500000D488546002103E00C4B5B580D
:1034EC00435004310B480C4B42189A42F6D30B4A0A
:1034FC0002E0002313600432094B9A42F9D3FCF723
:10350C008BFE00F021F8FFF793FFFEE70090002000
:10351C0074440008000000204C0500204C050020DD
:10352C0018530020FEE7000010B50021040000F045
:10353C0089F8044B1868C36B002B00D09847200007
:10354C0000F0BCF95C44000870B50D4E0D4DAD1B80
:10355C00AD1006D00024A300F35801349847A542BF
:10356C00F9D100F0AFF9084E084DAD1BAD1006D0E7
:10357C000024A300F35801349847A542F9D170BD3B
:10358C006844000868440008684400087044000857
:10359C00F0B5830746D0541E002A42D0CEB20200AA
:1035AC00032502E01A00013C3BD3531C16702B423E
:1035BC00F8D1032C2DD9FF220A40150215432A04F9
:1035CC0015430F2C16D92700103F3F093E01B44676
:1035DC001E001A0010366644156055609560D56063
:1035EC001032B242F8D10F2201373F01DB191440DF
:1035FC00032C0ED9261FB608B700BC461A001F1D97
:10360C00674420C2BA42FCD103220136B6009B1992
:10361C001440002C05D0C9B21C19197001339C42FE
:10362C00FBD1F0BD14000300C3E7C046034B10B53B
:10363C00002B02D0024800F091F810BD00000000F1
:10364C0079370008F0B5DE4657464E464546E0B59C
:10365C003F4B87B01B680590180001930F0000F0DA
:10366C00A9F83C4B1B6803934933FF330493A42202
:10367C00039B52009E58002E4BD0049B9A4601236C
:10368C009B467468651E32D4C4235B009946043390
:10369C009C46B44463460134A4003419B1440193EC
:1036AC0002E0043C013D22D3002F04D0631CFF3305
:1036BC001B68BB42F5D173682268013BAB4233D027
:1036CC0000232360002AECD07368494698465B4679
:1036DC00AB400968194229D1904773684345C6D15C
:1036EC0053461B68B342C2D1043C013DDCD21A4B99
:1036FC00002B0ED072683368002A22D1002B20D008
:10370C0052463000136000E000BF53461E68002E86
:10371C00B7D10F4B186800F055F807B03CBC904679
:10372C009946A246AB46F0BD7560CBE721000198E7
:10373C008031006809680290184205D105989047BD
:10374C00CBE7B2461E00E2E708009047C5E7C0464B
:10375C00480500205C4400080000000010B5010082
:10376C0000230022002000F02FF810BD70B5094B8B
:10377C00094CE41AA41009D0084AA518AD00ED189C
:10378C002B68013C9847043D002CF9D100F0A0F8BF
:10379C0070BDC0467044000874440008FFFFFF3F32
:1037AC007047C0467047C0467047C0467047C04619
:1037BC007047C0467047C0460120704701207047D3
:1037CC007047C0467047C046F0B54E464546DE468B
:1037DC005746E0B5364D83B00600286898460F0072
:1037EC009146FFF7E7FF334B1C68A4235B00E058BE
:1037FC00002852D043681F2B13DC5A1C0192002E58
:10380C0028D1019A02339B0042601F502868FFF7B1
:10381C00D9FF002003B03CBC90469946A246AB466B
:10382C00F0BD254B002B3DD0C820400000E000BF70
:10383C00002837D0A42200235200A1584360016015
:10384C00A050403283500432835001330193002343
:10385C00002ED6D09A00924682444A46882154467D
:10386C006250C4225200914681444A46873999409D
:10387C0012688B460A4394464A466146116084227C
:10388C0041465200A150022EBBD102005C468D3243
:10389C00FF3211680C431460B3E720004D30FF3049
:1038AC00E050A7E72868FFF78DFF01204042B1E701
:1038BC00480500205C44000800000000FEE7C046FC
:1038CC0000000000F8B5C046F8BC08BC9E46704726
:0C38DC00F8B5C046F8BC08BC9E4670471A
:1038E80000000000000000000000000000000000D0
:1038F80001000000020000000300000004000000B6
:1039080000000000000000000000000000000000AF
:10391800000000000000000000000000000000009F
:103928000100000002000000030000000400000085
:103938000600000007000000080000000900000061
:10394800A6050008C605000886050008E805000861
:1039580058050008E8050008E8050008E80500081B
:10396800E8050008E8050008E8050008E80500087B
:10397800E8050008E8050008E8050008E80500086B
:10398800E8050008C6040008E8050008E80500087E
:10399800E8050008E80500082E05000801070406E8
:1039A800060A07020A080003060A040007090104B8
:1039B80006010A0802080A040805030900010A07A3
:1039C800020409050A0406090205070A0104060893
:1039D80002090805050A0706030009040608040089
:1039E80002090005010A0308030A020103010A0586
:1039F800000904070308020500060A07050A06006D
:103A080001090503070A040209070501000602085F
:103A18000601090A00050A121E3248647DA0B4C8CE
:103A2800FFC8B4A07D6448321E120A0500000000D9
:103A38005211A000D4B7B30079CF270012FC1000B0
:103A48001D4DE200CDCDB000B854B700973EF2004E
:103A58003C3C5F006496020076367200A2B6B8005D
:103A68003CAF1C0079CF270012FC10001D4DE2006E
:103A7800CDCDB000B3100300AD7F0B0042D90700D5
:103A880064960200996B6400A2B6B80053DB480044
:103A980079CF270012FC10001D4DE200CDCDB000FB
:103AA800C26A7C00AD7F0B0042D90700FB4F0300C0
:103AB800C8C6F20099F76D0053DB4800824F190021
:103AC80012FC1000C7D62A00CDCDB0009537C30030
:103AD800AD7F0B008CAF9800FB4F0300BCF965006D
:103AE80023B0DE0046DBD700824F190012FC10001D
:103AF800C7D62A00CDCDB00069BEDA00D878090053
:103B08008CAF9800FB4F030042DFA90023B0DE0012
:103B1800FD921000824F190012FC1000C7D62A002F
:103B280079A90A005CF03F002951B1008CAF9800D8
:103B3800348808001CA3CC0023B0DE004AAF25005F
:103B480042974A0012FC1000516C060079A90A003D
:103B580089790A0089A0E7007BA7A00034880800BB
:103B680077954C0023B0DE003544340021ADF600D3
:103B780046D1F800516C060079A90A00D24905001F
:103B880089A0E700634797003488080077954C00C0
:103B98003C2D00005B58110021ADF600A7909D0058
:103BA800516C060079A90A00D249050089A0E700EE
:103BB80056746800348808005782FF00FA5EB70020
:103BC8005B58110021ADF600A7909D009AED8B007F
:103BD800CDD89D00CC6A6100B727C2005674680032
:103BE800F31C59005782FF00A8E1E1005B5811005F
:103BF80021ADF600A876030051ED7B002ABA8600B5
:103C0800CC6A6100A9A34000EE1C5700F31C5900C0
:103C18005782FF00A8E1E1005B58110021881900D4
:103C2800A876030051ED7B00E9FE5A00F6F0D200B9
:103C3800EA939200EE1C57003C59070070B5360015
:103C48006DA637005B58110021881900A87603007B
:103C5800A7E10200E9FE5A0036D12E00EA9392004D
:103C6800EE1C5700DBB30C003A90FF006DA637003E
:103C78005B5811007CB2900016892400A7E102006D
:103C880047F802004624B300EA939200D868FD0082
:103C9800EA3900003A90FF006DA63700C8F5CC005D
:103CA800AFA86300EA6B9E00A7E10200618F640081
:103CB8004624B300EA939200D868FD00B7FC3800A8
:103CC800F5B41E006DA63700CB179500AFA86300AA
:103CD800EA6B9E0043809800618F6400EC45090000
:103CE800959FBE00D868FD0060995D00A4A9F30007
:103CF800CCD2550034339600AFA863002D1695003A
:103D080043809800618F6400EC45090071EC27003E
:103D1800D868FD00888DAF003E53A400CCD2550072
:103D2800B5FA71009539C7002D16950010D6160002
:103D38003F21CA00BB1EC60071EC2700416000008D
:103D4800888DAF001CDB0000CCD25500B5FA71009D
:103D58009539C70038BED800CC4202003F21CA00BE
:103D680023B7D80071EC2700F551D600888DAF0035
:103D780035DC1800974C1A00B5FA71009539C70060
:103D8800F042BF00173E90003F21CA0023B7D80079
:103D9800724EFD00F551D600888DAF00163FF20037
:103DA800974C1A00E92676009539C700F042BF0003
:103DB800BF8407003F21CA0019790400724EFD0034
:103DC800B1268900EC487300163FF200974C1A00A0
:103DD800E9267600E24C240050E6AB00BF840700D9
:103DE800BBD7DE00197904002B5F32001DD8020012
:103DF8005FDC8600163FF200974C1A00A6DCE40050
:103E080057975C00F998EF00BF84070029830700E3
:103E1800197904002B5F320038127A005FDC8600C3
:103E2800163FF200974C1A00D5DE07008D450D00AD
:103E38009F31A300BF8407004F2FF00019790400B9
:103E4800D38ABC0037DB09005FDC8600A3A10B0026
:103E5800BE14B400D5DE07008D450D009F31A300C8
:103E6800BF840700D69B0E00DC6CA3007F92330052
:103E780070CEC1005FDC8600DF5E4500BE14B40072
:103E880019A4F6008D450D001FB0B20040F5BB0027
:103E9800D69B0E00DC6CA3007F92330070CEC1006D
:103EA8005FDC8600AA413100BE14B400CD3D280075
:103EB8008D450D00ED7A3B00C8FE7E00D69B0E00B6
:103EC800CF777E007F92330061970100B613FF0021
:103ED800AA4131003C2DA200CD3D28008D450D00A2
:103EE800A9AEFB0064A38E004D64B000CF777E00BE
:103EF8007F92330061970100B613FF00AA41310099
:103F08003C2DA20017F04F008D450D00A9AEFB0017
:103F18007EB837003BE8AD00CF777E007F92330054
:103F2800796E0000B613FF00AA4131003C2DA200B3
:103F380017F04F0066DAC7006A1C33007EB83700F6
:103F4800E14B6000CF777E003D453000796E000080
:103F580059650300AA4131003C2DA20095BE0E0010
:103F680066DAC7001E9E6300E8AA020051E09500C9
:103F7800CF777E003D453000DF6C4E005965030069
:103F8800AA4131003C2DA20095BE0E0066DAC7009A
:103F980082193000E8AA020051E09500CF777E0030
:103FA8009CE60D0026A1B70084217500AA413100C6
:103FB8003C2DA20095BE0E0066DAC700D3F21700AA
:103FC8003C5E470051E0950088710F00D3C287001E
:103FD8003D573A0084217500AA413100B6D1BA0094
:103FE8003564FD00955BC300D3F217002F5511000F
:103FF80051E095003DF32900D3C287003D573A00B0
:10400800CD10BA00907B0D00B6D1BA003564FD0022
:104018006F562D00D3F217002F551100C8F97E00F6
:104028003DF32900D3C287003D573A00CD10BA00AE
:104038009BC70B006EA7E3003564FD00BA67E80074
:10404800D3F217002F55110016CB43003DF329007A
:10405800CB5B3700F891AF0017DEC4009BC70B009D
:10406800A64C2000B2530B00548F1B00D3F217004C
:104078002F5511001B460B0025442100CB5B370050
:10408800AF1CEC0079C6FA009BC70B00A64C2000B9
:10409800B2530B007BAC2400D3F217001EDE0400E1
:1040A800483825002DC42A00CB5B37008A753900B3
:1040B80079C6FA00FCE80D00A64C2000B2530B00AC
:1040C8009E945200D3F21700984AF500483825000C
:1040D8002DC42A00951940008A7539002C700E00ED
:1040E8009BD15A00A64C2000B2530B009E9452005C
:1040F8003C5FA500984AF500483825002DC42A00E1
:10410800EDC812008A753900134F59009BD15A0027
:10411800A64C2000A107000094DD66003C5FA500C6
:104128008CED230048382500D55BCB00EDC8120084
:104138008A7539006E3303009BD15A00A64C2000C3
:10414800A107000094DD660016A20C00ADF19800EE
:10415800DFC97F00D55BCB00E9D22C008A75390016
:10416800AC1CC1009BD15A00A64C2000653E4E00F5
:1041780045DA0000BDAA0C00ADF19800DFC97F0048
:10418800D55BCB00D0390700FEF0F300AC1CC100B2
:10419800547C4100A64C2000653E4E00F5632E007D
:1041A800BDAA0C0081889B0098C64F00D55BCB0048
:1041B800D03907004AA89000AC1CC10093AF140086
:1041C800A64C2000653E4E00A1423B00BDAA0C0053
:1041D8007C88120098C64F00975D1600DC8D200081
:1041E80089100900AC1CC10093AF1400A64C200034
:1041F800653E4E00A1423B00BDAA0C00615F2E0047
:1042080064EA6000AC34DA00DC8D2000C496080053
:10421800F1629E0093AF1400221D9C00AD28F000AF
:10422800A1423B008AFB8D00E586080064EA600035
:104238003234B000DC8D2000C4960800F1629E0084
:10424800BC3C330078F45C00AD28F000A1423B0090
:10425800595522005D5D7A0064EA60003234B0008E
:1042680066BC8D00D23FE000F1629E00BC3C33008A
:1042780078F45C003B3A53008D3B6600C25F7A00DD
:104288005D5D7A00B9C3E1003234B00066BC8D00D0
:10429800638EEF00698BB700F598970078F45C009F
:1042A800CD82A6008D3B6600C25F7A00F36B2100C9
:1042B800F88FE200F56B2000E8F8CC00638EEF0081
:1042C80033A30C00F5989700DA1D0008061E0008B5
:1042D800121E0008321E0008DC1D00084E1E0008D1
:1042E80092240008CE230008F22300089023000837
:1042F800F22300086E240008F22300089023000827
:10430800CE230008CE2300086E240008902300085E
:10431800C4240008C4240008C42400087A2400081F
:10432800CE230008CE230008F22300088E230008BD
:10433800F22300086E240008F22300088E230008E8
:10434800CE230008CE2300086E2400088E23000820
:10435800C4240008C4240008C424000878240008E1
:10436800BC2700086627000866270008942800086C
:1043780062270008622700088A2800089428000895
:10438800622700088A280008622700089428000885
:10439800982800089828000898280008A0280008ED
:1043A800282F00082A2E00082A2E00084831000865
:1043B800242E0008242E0008303100084831000857
:1043C800242E000830310008242E00084831000847
:1043D8003E3100083E3100083E3100084C310008EB
:1043E8002D3E205359533A2052756E6E696E6720E0
:1043F8006E65772076657273696F6E0A000000003B
:104408002D3E20476F20746F20736C656570206D9A
:104418006F64650A000000002D3E20535452495035
:104428003A20496E697420636F6D706C65746564B9
:104438000A0000002D3E2043544F5543483A207649
:10444800616C696420502564204E256420432564EE
:084458000A0000002001002011
:08446000A4BCFF7F0100000075
:0844680039360008E5000008E8
:04447000BD00000883
:10447400000000000024F400010000000808080403
:1044840004040808040404080804040408080402D2
:10449400040404040402040188014A015D01880142
:1044A40088018801B801EE010B020B020B024A01DC
:1044B4005D01880188018801B80188015D015D0101
:1044C4004A01880106014A0126015D01F70006013F
:1044D4000404080808080404040408080808040478
:1044E400040408080808040408080404040200007A
:1044F400F7005D015D0188015D014A012601260185
:10450400260188018801B80188015D014A014A0138
:104514004A01B801B801EE01B80188015D01260124
:10452400F700F700260188014A015D010808040824
:1045340008040808080802080808080808081010F1
:104544000808080804040000000000009302930215
:104554009302930293029302930210030B024B0201
:104564009302BA02BA02BA02BA02BA0293029302DC
:104574009302930293024B024B0293024B021003E9
:1045840000000000000000002001002000000000E6
:10459400000000000C04002074040020DC0400204F
:1045A4000000000000000000000000000000000007
:1045B40000000000000000000000000000000000F7
:1045C40000000000000000000000000000000000E7
:1045D40000000000000000000000000000000000D7
:1045E40000000000000000000000000000000000C7
:1045F40000000000000000000000000000000000B7
:1046040000000000000000000000000000000000A6
:104614000000000000000000000000000000000096
:104624000000000000000000000000000000000086
:104634000000000000000000010000000000000075
:104644000E33CDAB34126DE6ECDE05000B0000003A
:104654000000000000000000000000000000000056
:104664000000000000000000000000000000000046
:104674000000000000000000000000000000000036
:104684000000000000000000000000000000000026
:0C49B4000000000000000000F452002091
:04000005080034E1DA
:00000001FF
